{
  "_format": "hh-sol-artifact-1",
  "contractName": "CertificateRegistry",
  "sourceName": "contracts/CertificateRegistry.sol",
  "abi": [
    {
      "inputs": [],
      "stateMutability": "nonpayable",
      "type": "constructor"
    },
    {
      "anonymous": false,
      "inputs": [
        {
          "indexed": false,
          "internalType": "string",
          "name": "certId",
          "type": "string"
        },
        {
          "indexed": false,
          "internalType": "string",
          "name": "studentName",
          "type": "string"
        },
        {
          "indexed": false,
          "internalType": "string",
          "name": "course",
          "type": "string"
        },
        {
          "indexed": true,
          "internalType": "address",
          "name": "issuedBy",
          "type": "address"
        },
        {
          "indexed": false,
          "internalType": "uint256",
          "name": "issuedAt",
          "type": "uint256"
        }
      ],
      "name": "CertificateIssued",
      "type": "event"
    },
    {
      "inputs": [],
      "name": "admin",
      "outputs": [
        {
          "internalType": "address",
          "name": "",
          "type": "address"
        }
      ],
      "stateMutability": "view",
      "type": "function"
    },
    {
      "inputs": [
        {
          "internalType": "string",
          "name": "certId",
          "type": "string"
        },
        {
          "internalType": "string",
          "name": "studentName",
          "type": "string"
        },
        {
          "internalType": "string",
          "name": "course",
          "type": "string"
        },
        {
          "internalType": "string",
          "name": "certHash",
          "type": "string"
        }
      ],
      "name": "issueCertificate",
      "outputs": [],
      "stateMutability": "nonpayable",
      "type": "function"
    },
    {
      "inputs": [
        {
          "internalType": "string",
          "name": "certId",
          "type": "string"
        }
      ],
      "name": "verifyCertificate",
      "outputs": [
        {
          "internalType": "string",
          "name": "",
          "type": "string"
        },
        {
          "internalType": "string",
          "name": "",
          "type": "string"
        },
        {
          "internalType": "string",
          "name": "",
          "type": "string"
        },
        {
          "internalType": "uint256",
          "name": "",
          "type": "uint256"
        },
        {
          "internalType": "address",
          "name": "",
          "type": "address"
        }
      ],
      "stateMutability": "view",
      "type": "function"
    }
  ],
  "bytecode": "0x608060405234801561001057600080fd5b50336000806101000a81548173ffffffffffffffffffffffffffffffffffffffff021916908373ffffffffffffffffffffffffffffffffffffffff160217905550610f3c806100606000396000f3fe608060405234801561001057600080fd5b50600436106100415760003560e01c8063818a2994146100465780638b23d87514610062578063f851a44014610096575b600080fd5b610060600480360381019061005b919061072d565b6100b4565b005b61007c60048036038101906100779190610816565b6103d7565b60405161008d95949392919061094d565b60405180910390f35b61009e61069a565b6040516100ab91906109b5565b60405180910390f35b60008054906101000a900473ffffffffffffffffffffffffffffffffffffffff1673ffffffffffffffffffffffffffffffffffffffff163373ffffffffffffffffffffffffffffffffffffffff1614610142576040517f08c379a000000000000000000000000000000000000000000000000000000000815260040161013990610a1c565b60405180910390fd5b600060018989604051610156929190610a7b565b9081526020016040518091039020600201805461017290610ac3565b9050146101b4576040517f08c379a00000000000000000000000000000000000000000000000000000000081526004016101ab90610b40565b60405180910390fd5b6040518060a0016040528087878080601f016020809104026020016040519081016040528093929190818152602001838380828437600081840152601f19601f82011690508083019250505050505050815260200185858080601f016020809104026020016040519081016040528093929190818152602001838380828437600081840152601f19601f82011690508083019250505050505050815260200183838080601f016020809104026020016040519081016040528093929190818152602001838380828437600081840152601f19601f8201169050808301925050505050505081526020014281526020013373ffffffffffffffffffffffffffffffffffffffff16815250600189896040516102cf929190610a7b565b908152602001604051809103902060008201518160000190816102f29190610d3b565b5060208201518160010190816103089190610d3b565b50604082015181600201908161031e9190610d3b565b506060820151816003015560808201518160040160006101000a81548173ffffffffffffffffffffffffffffffffffffffff021916908373ffffffffffffffffffffffffffffffffffffffff1602179055509050503373ffffffffffffffffffffffffffffffffffffffff167f192735a5111e79a7ba3f6aa8a10d32ffaf5431653c4e9c4af8fa5034ca333598898989898989426040516103c59796959493929190610e3a565b60405180910390a25050505050505050565b60608060606000806000600188886040516103f3929190610a7b565b90815260200160405180910390206040518060a001604052908160008201805461041c90610ac3565b80601f016020809104026020016040519081016040528092919081815260200182805461044890610ac3565b80156104955780601f1061046a57610100808354040283529160200191610495565b820191906000526020600020905b81548152906001019060200180831161047857829003601f168201915b505050505081526020016001820180546104ae90610ac3565b80601f01602080910402602001604051908101604052809291908181526020018280546104da90610ac3565b80156105275780601f106104fc57610100808354040283529160200191610527565b820191906000526020600020905b81548152906001019060200180831161050a57829003601f168201915b5050505050815260200160028201805461054090610ac3565b80601f016020809104026020016040519081016040528092919081815260200182805461056c90610ac3565b80156105b95780601f1061058e576101008083540402835291602001916105b9565b820191906000526020600020905b81548152906001019060200180831161059c57829003601f168201915b50505050508152602001600382015481526020016004820160009054906101000a900473ffffffffffffffffffffffffffffffffffffffff1673ffffffffffffffffffffffffffffffffffffffff1673ffffffffffffffffffffffffffffffffffffffff1681525050905060008160400151511161066c576040517f08c379a000000000000000000000000000000000000000000000000000000000815260040161066390610ee6565b60405180910390fd5b8060000151816020015182604001518360600151846080015195509550955095509550509295509295909350565b60008054906101000a900473ffffffffffffffffffffffffffffffffffffffff1681565b600080fd5b600080fd5b600080fd5b600080fd5b600080fd5b60008083601f8401126106ed576106ec6106c8565b5b8235905067ffffffffffffffff81111561070a576107096106cd565b5b602083019150836001820283011115610726576107256106d2565b5b9250929050565b6000806000806000806000806080898b03121561074d5761074c6106be565b5b600089013567ffffffffffffffff81111561076b5761076a6106c3565b5b6107778b828c016106d7565b9850985050602089013567ffffffffffffffff81111561079a576107996106c3565b5b6107a68b828c016106d7565b9650965050604089013567ffffffffffffffff8111156107c9576107c86106c3565b5b6107d58b828c016106d7565b9450945050606089013567ffffffffffffffff8111156107f8576107f76106c3565b5b6108048b828c016106d7565b92509250509295985092959890939650565b6000806020838503121561082d5761082c6106be565b5b600083013567ffffffffffffffff81111561084b5761084a6106c3565b5b610857858286016106d7565b92509250509250929050565b600081519050919050565b600082825260208201905092915050565b60005b8381101561089d578082015181840152602081019050610882565b60008484015250505050565b6000601f19601f8301169050919050565b60006108c582610863565b6108cf818561086e565b93506108df81856020860161087f565b6108e8816108a9565b840191505092915050565b6000819050919050565b610906816108f3565b82525050565b600073ffffffffffffffffffffffffffffffffffffffff82169050919050565b60006109378261090c565b9050919050565b6109478161092c565b82525050565b600060a082019050818103600083015261096781886108ba565b9050818103602083015261097b81876108ba565b9050818103604083015261098f81866108ba565b905061099e60608301856108fd565b6109ab608083018461093e565b9695505050505050565b60006020820190506109ca600083018461093e565b92915050565b7f4f6e6c792061646d696e00000000000000000000000000000000000000000000600082015250565b6000610a06600a8361086e565b9150610a11826109d0565b602082019050919050565b60006020820190508181036000830152610a35816109f9565b9050919050565b600081905092915050565b82818337600083830152505050565b6000610a628385610a3c565b9350610a6f838584610a47565b82840190509392505050565b6000610a88828486610a56565b91508190509392505050565b7f4e487b7100000000000000000000000000000000000000000000000000000000600052602260045260246000fd5b60006002820490506001821680610adb57607f821691505b602082108103610aee57610aed610a94565b5b50919050565b7f416c726561647920697373756564000000000000000000000000000000000000600082015250565b6000610b2a600e8361086e565b9150610b3582610af4565b602082019050919050565b60006020820190508181036000830152610b5981610b1d565b9050919050565b7f4e487b7100000000000000000000000000000000000000000000000000000000600052604160045260246000fd5b60008190508160005260206000209050919050565b60006020601f8301049050919050565b600082821b905092915050565b600060088302610bf17fffffffffffffffffffffffffffffffffffffffffffffffffffffffffffffffff82610bb4565b610bfb8683610bb4565b95508019841693508086168417925050509392505050565b6000819050919050565b6000610c38610c33610c2e846108f3565b610c13565b6108f3565b9050919050565b6000819050919050565b610c5283610c1d565b610c66610c5e82610c3f565b848454610bc1565b825550505050565b600090565b610c7b610c6e565b610c86818484610c49565b505050565b5b81811015610caa57610c9f600082610c73565b600181019050610c8c565b5050565b601f821115610cef57610cc081610b8f565b610cc984610ba4565b81016020851015610cd8578190505b610cec610ce485610ba4565b830182610c8b565b50505b505050565b600082821c905092915050565b6000610d1260001984600802610cf4565b1980831691505092915050565b6000610d2b8383610d01565b9150826002028217905092915050565b610d4482610863565b67ffffffffffffffff811115610d5d57610d5c610b60565b5b610d678254610ac3565b610d72828285610cae565b600060209050601f831160018114610da55760008415610d93578287015190505b610d9d8582610d1f565b865550610e05565b601f198416610db386610b8f565b60005b82811015610ddb57848901518255600182019150602085019450602081019050610db6565b86831015610df85784890151610df4601f891682610d01565b8355505b6001600288020188555050505b505050505050565b6000610e19838561086e565b9350610e26838584610a47565b610e2f836108a9565b840190509392505050565b60006080820190508181036000830152610e5581898b610e0d565b90508181036020830152610e6a818789610e0d565b90508181036040830152610e7f818587610e0d565b9050610e8e60608301846108fd565b98975050505050505050565b7f4e6f7420666f756e640000000000000000000000000000000000000000000000600082015250565b6000610ed060098361086e565b9150610edb82610e9a565b602082019050919050565b60006020820190508181036000830152610eff81610ec3565b905091905056fea26469706673582212204b0253af20192d59e5ee1ab64931754008b531964f60582aadf123331d09328c64736f6c63430008140033",
  "linkReferences": {},
  "deployedLinkReferences": {}
}